:020000040000FA
:100000000C9462000C948A000C948A000C948A0070
:100010000C948A000C948A000C948A000C948A0038
:100020000C948A000C948A000C948A000C948A0028
:100030000C948A000C948A000C948A000C948A0018
:100040000C945A040C948A000C94CA040C94A404D2
:100050000C948A000C948A000C948A000C948A00F8
:100060000C948A000C948A000000000024002700F1
:100070002A0000000000250028002B0000000000DE
:1000800023002600290004040404040404040202DA
:100090000202020203030303030301020408102007
:1000A0004080010204081020010204081020000012
:1000B0000008000201000003040700000000000027
:1000C0000000FC0411241FBECFEFD8E0DEBFCDBF7F
:1000D00011E0A0E0B1E0E0E7FFE002C005900D9282
:1000E000A636B107D9F722E0A6E6B1E001C01D921D
:1000F000A439B207E1F710E0C2E6D0E004C02197CE
:10010000FE010E94B007C136D107C9F70E94B605AB
:100110000C94B6070C94000096E0899FD00111243E
:10012000A35FBD4F90967C936E935F9791E09196FD
:100130009C939197E0917A02F0917B0290917902E1
:10014000992339F0309751F0811108C0809129022C
:100150000994309719F05C968C91FACF0895CF925C
:10016000DF92EF92FF920F931F9396E0899FF00129
:100170001124E35FFD4F11A2278D30A121303105FD
:1001800051F178F02230310509F451C023303105A6
:1001900009F452C01F910F91FF90EF90DF90CF9024
:1001A00008956623B9F361E070E00E948C002FB7D8
:1001B000F89480916C0190916D01A0916E01B091C5
:1001C0006F012FBF8093650290936602A093670230
:1001D000B0936802DFCF9FB7F894C0906C01D090C5
:1001E0006D01E0906E01F0906F019FBF009165027C
:1001F000109166022091670230916802C01AD10AFC
:10020000E20AF30A009177021091780230E020E0D0
:100210000C151D052E053F0550F462E070E01F919E
:100220000F91FF90EF90DF90CF900C948C006111B4
:10023000B1CF63E070E0F3CF70E060E0F0CF8330E7
:1002400081F028F4813099F08230A9F00895873048
:10025000A9F08830C9F08430B1F4809180008F7D9E
:1002600003C0809180008F7780938000089584B5CB
:100270008F7784BD089584B58F7DFBCF8091B000CA
:100280008F778093B00008958091B0008F7DF9CF73
:10029000CF93DF93282F30E0F901E255FF4F84918F
:1002A000F901E656FF4FD491F901EA57FF4FC49187
:1002B000CC23A1F081110E941F01EC2FF0E0EE0F82
:1002C000FF1FE458FF4FA591B491EC91ED2381E01D
:1002D00090E009F480E0DF91CF91089580E090E014
:1002E000FACF1F93CF93DF93282F30E0F901E25527
:1002F000FF4F8491F901E656FF4FD491F901EA5777
:10030000FF4FC491CC23A9F0162F81110E941F0129
:10031000EC2FF0E0EE0FFF1FEE58FF4FA591B491C8
:100320008FB7F894EC91111108C0D095DE23DC93BF
:100330008FBFDF91CF911F910895DE2BF8CFCF9320
:10034000DF9390E0FC01E656FF4F24918A579F4FC0
:10035000FC0184918823C9F090E0880F991FFC016B
:10036000E859FF4FA591B491FC01EE58FF4FC5919C
:10037000D49161110DC09FB7F8948C912095822380
:100380008C938881282328839FBFDF91CF91089584
:10039000623051F49FB7F8943C91822F809583236B
:1003A0008C93E8812E2BEFCF8FB7F894EC912E2B06
:1003B0002C938FBFEACF862F642F0C949F01862F3A
:1003C000642F0C947101862F0C944801AF92BF9258
:1003D000CF92DF92EF92FF920F931F93CF93DF9311
:1003E0006C017B018B01040F151FEB015E01AE1840
:1003F000BF08C017D10759F06991D601ED91FC9162
:100400000190F081E02DC6010995892B79F7C5018E
:10041000DF91CF911F910F91FF90EF90DF90CF90E0
:10042000BF90AF900895FC01538D448D252F30E08F
:10043000842F90E0821B930B541710F0CF960895F1
:1004400001970895FC01918D828D981761F0A28D1E
:10045000AE0FBF2FB11D5D968C91928D9F5F9F73E4
:10046000928F90E008958FEF9FEF0895FC01918D9A
:10047000828D981731F0828DE80FF11D858D90E007
:1004800008958FEF9FEF0895FC01918D228D892FA4
:1004900090E0805C9F4F821B91098F73992708958C
:1004A00080E791E00E94440221E0892B09F420E0DA
:1004B000822F089580E090E0892B29F00E9450025D
:1004C00081110C9400000895FC01A48DA80FB92F90
:1004D000B11DA35ABF4F2C91848D90E001968F736C
:1004E0009927848FA689B7892C93A089B1898C918B
:1004F000837080648C93938D848D981306C00288DA
:10050000F389E02D80818F7D80830895EF92FF92A3
:100510000F931F93CF93DF93EC0181E0888F9B8D26
:100520008C8D98131AC0E889F989808185FF15C0E0
:100530009FB7F894EE89FF896083E889F989808103
:100540008370806480839FBF81E090E0DF91CF91D2
:100550001F910F91FF90EF900895F62E0B8D10E0F4
:100560000F5F1F4F0F731127E02E8C8D8E110CC063
:100570000FB607FCFACFE889F989808185FFF5CFAE
:10058000CE010E946402F1CFEB8DEC0FFD2FF11D27
:10059000E35AFF4FF0829FB7F8940B8FEA89FB89EB
:1005A00080818062CFCFCF93DF93EC01888D882349
:1005B000B9F0AA89BB89E889F9898C9185FD03C0C6
:1005C000808186FD0DC00FB607FCF7CF8C9185FFAB
:1005D000F2CF808185FFEDCFCE010E946402E9CF8A
:1005E000DF91CF910895089590E080E00895FC0197
:1005F00001900020E9F73197AF01481B590BBC016E
:100600008CE792E00C94E601CF93DF93EC0160E07D
:100610008E810E94710161E08E810E94710160E013
:100620008E810E9471018BE891E00197F1F7DF91D3
:10063000CF910895CF92DF92EF92FF920F931F9385
:10064000CF93DF936C017C0187E0E80EF11CD0E0D2
:10065000C0E0062F10E0B8010C2E02C0759567951A
:100660000A94E2F76170F70181917F010E947101A4
:100670002196C430D10579F7C601DF91CF911F9142
:100680000F91FF90EF90DF90CF900C940403CF92E6
:10069000DF92EF92FF920F931F93CF93DF93EC01C2
:1006A000F62E642F8C810E9471018D818F3F19F08D
:1006B00060E00E9471010F2D10E08F8584FF25C03E
:1006C0006E0187E0C80ED11CF12CE12CB8010E2C74
:1006D00002C0759567950A94E2F76170F601819101
:1006E0006F010E947101FFEFEF1AFF0A88E0E81620
:1006F000F10461F7CE01DF91CF911F910F91FF902F
:10070000EF90DF90CF900C940403B80184E07595CE
:1007100067958A95E1F7CE010E941A036F2DCE01ED
:10072000DF91CF911F910F91FF90EF90DF90CF90CD
:100730000C941A0340E0682F8CE792E00C94470376
:10074000CF93DF93823029F490918B02986090933D
:100750008B0280938F021092900280E4809391022A
:1007600080E18093920280E58093930261E0809122
:1007700080020E949F01809181028F3F19F061E009
:100780000E949F0161E0809182020E949F01CCE75C
:10079000D2E09E012C57324080918B0284FD0BC029
:1007A00084E090E021962817390744F461E08E81B7
:1007B0000E949F01EECF88E090E0F4CF8BE39DE0B4
:1007C0000197F1F760E0809180020E94710160E082
:1007D000809182020E947101809181028F3F19F005
:1007E00060E00E94710180918B0284FD39C063E05A
:1007F0008CE792E00E941A03CBE4D6E4CE01019785
:10080000F1F763E08CE792E00E941A032197F1F779
:1008100063E08CE792E00E941A0383E592E001977F
:10082000F1F762E08CE792E00E941A0380918B025C
:1008300080620E949A0384E080938C028CE00E9484
:100840009A0381E00E949A038BE39FE10197F1F7FD
:1008500082E080938D0286E0DF91CF910C949A0321
:1008600080620E949A038BE496E40197F1F78091ED
:100870008B0280620E949A0383E592E00197F1F770
:1008800080918B0280620E949A03D0CF90918F0258
:10089000891710F08FEF890FE82FF0E0E458FD4F33
:1008A000848980680C949A0341E00E94470381E0A8
:1008B00090E008951F920F920FB60F9211242F937C
:1008C0003F938F939F93AF93BF9380916C019091CF
:1008D0006D01A0916E01B0916F0130916B0123E029
:1008E000230F2D3758F50196A11DB11D20936B01E3
:1008F00080936C0190936D01A0936E01B0936F0192
:100900008091670190916801A0916901B0916A019D
:100910000196A11DB11D8093670190936801A0937A
:100920006901B0936A01BF91AF919F918F913F91FF
:100930002F910F900FBE0F901F90189526E8230F50
:100940000296A11DB11DD2CF1F920F920FB60F922A
:1009500011242F933F934F935F936F937F938F93C4
:100960009F93AF93BF93EF93FF9380E791E00E9433
:100970006402FF91EF91BF91AF919F918F917F9111
:100980006F915F914F913F912F910F900FBE0F90FC
:100990001F9018951F920F920FB60F9211242F934C
:1009A0008F939F93EF93FF93E0918001F0918101EA
:1009B0008081E0918601F091870182FD1BC09081CA
:1009C000809189018F5F8F7320918A01821741F096
:1009D000E0918901F0E0E059FE4F958F8093890105
:1009E000FF91EF919F918F912F910F900FBE0F90DC
:1009F0001F9018958081F4CF1092730110927201AC
:100A000088EE93E0A0E0B0E08093740190937501CC
:100A1000A0937601B093770187E191E09093710103
:100A20008093700185EC90E090937D0180937C0130
:100A300084EC90E090937F0180937E0180EC90E0C5
:100A4000909381018093800181EC90E090938301E9
:100A50008093820182EC90E09093850180938401E1
:100A600086EC90E090938701809386011092890133
:100A700010928A0110928B0110928C0110927F02C9
:100A800010927E0283E391E090937D0280937C023A
:100A900087E0809380028FEF8093810286E08093CD
:100AA000820285E08093830284E08093840283E065
:100AB0008093850282E080938602109287021092D2
:100AC00088021092890210928A0210928B0281E0B1
:100AD0000E94A00310920F021092130210921202B1
:100AE0001092140289E291E090930E0280930D021D
:100AF000E9E2F2E01082148213821582369682E0D7
:100B0000E536F807B9F783E091E09093700280939F
:100B10006F0280E091E0909372028093710284E012
:100B20008093730283E08093740287E091E0909356
:100B30006E0280936D028AE090E09093760280933B
:100B4000750284EF91E0909378028093770210927F
:100B50007B0210927A021092690210926A0210923D
:100B60006B0210926C02109279020895789484B509
:100B7000826084BD84B5816084BD85B5826085BD99
:100B800085B5816085BD80916E00816080936E0027
:100B90001092810080918100826080938100809119
:100BA00081008160809381008091800081608093CA
:100BB00080008091B10084608093B1008091B0008A
:100BC00081608093B00080917A00846080937A0085
:100BD00080917A00826080937A0080917A008160AF
:100BE00080937A0080917A00806880937A001092D6
:100BF000C100E0918001F091810182E08083E09169
:100C00007C01F0917D011082E0917E01F0917F01E5
:100C10008FEC808310928801E0918401F09185012E
:100C200086E08083E0918201F09183018081806180
:100C30008083E0918201F0918301808188608083CC
:100C4000E0918201F0918301808180688083E0914E
:100C50008201F091830180818F7D808382E00E94F8
:100C6000A00380E00E9446048BE391E00E94F7021B
:100C700081E00E9446048BE491E00E94F702412C3F
:100C8000512C3201439422242A94322C50E0C52E58
:100C900050E0D52E51E0509379028FB7F8944091EF
:100CA0006C0150916D0160916E0170916F018FBF69
:100CB0008091690290916A02A0916B02B0916C02DE
:100CC000481B590B6A0B7B0B809175029091760241
:100CD000B0E0A0E084179507A607B70708F019C190
:100CE000C0E080917302C81760F4E0916F02F09148
:100CF0007002EC0FF11D62E080810E949F01CF5FC6
:100D0000F0CF912C80917402981608F05FC0092DE5
:100D100010E0E0917102F0917202E00FF11F61E0CA
:100D200080810E949F01E0917102F0917202E00FB8
:100D3000F11F60E080810E947101D301C201092C82
:100D400004C0880F991FAA1FBB1F0A94D2F75C0129
:100D50007C01E094F094812C809173028816F8F461
:100D6000C82DD0E0E0916F02F0917002EC0FFD1FF2
:100D700080810E9448012496CC0FDD1FC35FDD4FA8
:100D8000892B41F4888199818A299B2999838883B9
:100D90008394E2CF888199818E219F21F7CFE091C2
:100DA0007102F0917202E00FF11F61E080810E94F8
:100DB00071018091710290917202080F191F60E019
:100DC000F80180810E949F0193949CCFCDE0D2E0F6
:100DD000FE01878D90A1892B21F4148E368E258EED
:100DE00011A2369652E0E934F50799F710E08091A8
:100DF0007302181708F053C000E0E12EF12CEE0C3E
:100E0000FF1CC7018B5E9D4F7C012091740202176D
:100E100008F043C0F70160817181002E02C0769511
:100E200067950A94E2F7129F90011124200F311D5B
:100E3000EDE0F2E080E0458D568D2417350709F48A
:100E40008DC08F5F36968A30B1F760FF24C0EDE029
:100E5000F2E090E080E0448D411118C0E0916D0215
:100E6000F0916E02E20FF31F408156E0589FF001AF
:100E7000599FF00D1124E35FFD4F448F368F258F6E
:100E800010A2178E61E00E94AF0005C00196369651
:100E90008A30910501F70F5FB8CF1F5FA8CF80E0C0
:100EA00099A19111892F269692E0C934D907C1F7EB
:100EB0009FB7F89440916C0150916D0160916E0163
:100EC00070916F019FBF4093690250936A026093D3
:100ED0006B0270936C028823E1F080912E028823CC
:100EE000C1F080912C0290912D02019791F4809194
:100EF000290280936601811111C0C114D10409F443
:100F0000C9CE0E945002882309F4C4CE0E9400007A
:100F1000C1CE1092790210926601EFCF81E00E945B
:100F2000460482E591E00E94F70281E00E944604B7
:100F3000C091660141E06C2F8CE792E00E9447036C
:100F40006C2F80E791E00E94860242E050E063E669
:100F500071E080E791E00E94E601CFCF617093CF0E
:100F6000EE0FFF1F0590F491E02D0994F894FFCF48
:100F700008090A0F10111231323334353637383937
:100F80002A3023000000008602E6011302D3024447
:100F9000022202360200000000DB01DF01E3010053
:100FA0000000005404E601F402F302416264656C3F
:100FB0007261686D616E20616C69007461736B5F52
:100FC000370020202020202020202020202020202A
:060FD0002020000D0A00C4
:107E0000112484B714BE81FFF0D085E080938100F7
:107E100082E08093C00088E18093C10086E0809377
:107E2000C20080E18093C4008EE0C9D0259A86E02C
:107E300020E33CEF91E0309385002093840096BBD3
:107E4000B09BFECF1D9AA8958150A9F7CC24DD24C4
:107E500088248394B5E0AB2EA1E19A2EF3E0BF2EE7
:107E6000A2D0813461F49FD0082FAFD0023811F036
:107E7000013811F484E001C083E08DD089C08234E0
:107E800011F484E103C0853419F485E0A6D080C0E4
:107E9000853579F488D0E82EFF2485D0082F10E0AE
:107EA000102F00270E291F29000F111F8ED06801E7
:107EB0006FC0863521F484E090D080E0DECF843638
:107EC00009F040C070D06FD0082F6DD080E0C81688
:107ED00080E7D80618F4F601B7BEE895C0E0D1E017
:107EE00062D089930C17E1F7F0E0CF16F0E7DF06D8
:107EF00018F0F601B7BEE89568D007B600FCFDCFD4
:107F0000A601A0E0B1E02C9130E011968C91119780
:107F100090E0982F8827822B932B1296FA010C0160
:107F200087BEE89511244E5F5F4FF1E0A038BF0790
:107F300051F7F601A7BEE89507B600FCFDCF97BE46
:107F4000E89526C08437B1F42ED02DD0F82E2BD052
:107F50003CD0F601EF2C8F010F5F1F4F84911BD097
:107F6000EA94F801C1F70894C11CD11CFA94CF0C13
:107F7000D11C0EC0853739F428D08EE10CD085E9AC
:107F80000AD08FE07ACF813511F488E018D01DD067
:107F900080E101D065CF982F8091C00085FFFCCF94
:107FA0009093C60008958091C00087FFFCCF809118
:107FB000C00084FD01C0A8958091C6000895E0E648
:107FC000F0E098E1908380830895EDDF803219F02E
:107FD00088E0F5DFFFCF84E1DECF1F93182FE3DFCA
:107FE0001150E9F7F2DF1F91089580E0E8DFEE27F6
:047FF000FF270994CA
:027FFE00040479
:00000001FF
